:100000000C94E9000C9406010C9406010C94060172
:100010000C9406010C9406010C9406010C94060144
:100020000C9406010C9406010C94B5040C94320354
:100030000C9406010C9406010C9406010C94060124
:100040000C9406010C9406010C9406010C94060114
:100050000C9406010C9406010C9406010C946F029A
:100060000C9406010C9406010C9406010C940601F4
:100070000C9406010C9406010C9406010C940601E4
:100080000C9406010C9406010C9406010C940601D4
:100090000C9406010C94060101290229042908295F
:1000A0001029202940298029012C022C0126022612
:1000B000042608261026202640268026402C802C48
:1000C0000123022304230823102320234023802319
:1000D0000120022004200820102020204020802021
:1000E000102C202C012F022F042F082F102F202F2F
:1000F000402F802F7EFE7EFD7EFB7EF77EEF7EDF33
:100100007EBF7E7F00010000380112000200004A1D
:100110000143000300008D0104010309049101184B
:1001200002030904AB011603030904C3010C000117
:10013000C102018036018136120100020200002056
:10014000C0168304000101020301090243000201F9
:1001500000C0320904000001020201000524001061
:1001600001052401000104240206052406000107FC
:1001700005820308004009040100020A000000078C
:100180000503024000000705840240000004030943
:100190000418035400650065006E00730079006464
:1001A00000750069006E006F0000001603550053D3
:1001B0000042002000530065007200690061006C7D
:1001C0000000000C03310032003300340035000021
:1001D000000011241FBECFEFD0E1DEBFCDBF11E084
:1001E000A0E0B1E0E4E6FAE002C005900D92AA308A
:1001F000B107D9F711E0AAE0B1E001C01D92A53125
:10020000B107E1F70E9409030C9430050C9400003B
:1002100080910001E82FF0E00E94370168EE73E062
:1002200080E090E00E94AF0280910001E82FF0E0B2
:100230000E943D0168EE73E080E090E00E94AF0212
:100240000895809100010E94260108958E3270F475
:10025000E8E9F0E0880FE80FF11D9591E491F0E0F6
:100260002FB7F8948181892B81832FBF0895EE32B7
:1002700050F4EE0FEC5BFE4F0994EE3220F4EE0FDB
:10028000E056FE4F09940895589AB6C0599AD0C0C6
:100290005A9A08955B9A08955C9A08955D9A089514
:1002A0005E9A08955F9A0895709A0895719A0895D4
:1002B000409A0895419A0895429A0895439A08955C
:1002C000449AC8C0459AC0C0469AB8C0479A089593
:1002D000769A0895779A0895289A0895299A089504
:1002E0002A9A08952B9A08952C9A9CC02D9A88C01A
:1002F0002E9A8CC02F9A90C0109A0895119A089542
:10030000129A0895139A0895149A0895159A0895C3
:10031000169A0895179A0895749A0895759A0895EB
:10032000889A0895899A08958A9A08958B9A0895CB
:100330008C9A08958D9A08958E9A08958F9A0895AB
:1003400058985AC0599874C05A9808955B9808955F
:100350005C9808955D9808955E9808955F98089553
:100360007098089571980895409808954198089557
:10037000429808954398089544986CC0459864C085
:1003800046985CC0479808957698089577980895A0
:1003900028980895299808952A9808952B980895E3
:1003A0002C9840C02D982CC02E9830C02F9834C067
:1003B0001098089511980895129808951398089523
:1003C0001498089515980895169808951798089503
:1003D000749808957598089588980895899808954F
:1003E0008A9808958B9808958C9808958D9808950B
:1003F0008E9808958F980895E4B5EF7DE4BD089533
:10040000E0918000EF77E09380000895E091800014
:10041000EF7DE09380000895E0918000E77FE09316
:1004200080000895E091B000EF77E093B000089568
:10043000E091B000EF7DE093B0000895E09190006E
:10044000EF77E09390000895E0919000EF7DE093C6
:1004500090000895E0919000E77FE0939000089568
:100460001DBA109268001CBC10BE1FBA10927A0010
:1004700010926E0010926F00109270001092710036
:100480001092C9001092BC0011B814B817B81AB86D
:100490001DB810BA12B815B818B81BB81EB811BAE2
:1004A0000895F89480E29EE40197F1F781E080934B
:1004B000E00080E28093D80080E69AEE0197F1F7A1
:1004C0000E9430020C94007EFFCFF8940E9430020C
:1004D00080E69AEE0197F1F70C940000FFCF8F931E
:1004E0008FB78F93809112018D5F8D37D0F48093F9
:1004F000120180910E018F5F80930E01D8F08091E0
:100500000F018F4F80930F01A8F0809110018F4F42
:100510008093100178F0809111018F4F8093110129
:1005200009C08D578093120180910E018E5F8093D8
:100530000E0128F780910A018C5F80930A0158F020
:1005400080910B018F4F80930B0128F080910C015B
:100550008F4F80930C018F918FBF8F9118959B01C6
:10056000AC010E94C802FB010DC00E94C8026E1BB4
:100570007F0B685E7340C8F32150304040405040CC
:10058000E851FC4F211531054105510571F70895DA
:100590000FB6F89466B515B270910A0180910B01FF
:1005A00090910C010FBE10FE05C06F3F19F07C5FEB
:1005B0008F4F9F4F11240024660F001C660F001CF4
:1005C00070290895F894E1E6F0E020E82083108295
:1005D00083E084BD85BDEEE6F0E0808181608083AC
:1005E00091E09093800082E0809381009093B0002E
:1005F0008093B100909390008093910086E880935F
:100600007A0020937B0010927E000E941003789461
:1006100008950E94E2020E9421010E940801FDCF7C
:100620008091D80087FF02C085FF1BC081E88093BE
:10063000D70080EA8093D8008AE189BD09B400FE22
:10064000FDCF80E98093D8001092E0001092150150
:1006500010921601109217011092E1008DE0809324
:10066000E20008951F920F920FB60F9211242F935C
:100670003F934F935F936F937F938F939F93AF932A
:10068000BF93EF93FF931092E9008091E80083FFFE
:1006900058C12091F1009091F1004091F1005091EA
:1006A000F1006091F1007091F100A091F100B09122
:1006B000F10082EF8093E800963009F044C0E4E056
:1006C000F1E020E0859195918417950711F035961A
:1006D00017C0859195918617970711F0339610C032
:1006E000259135914491CD01AF3FB10519F010F03E
:1006F0008FEF90E0841708F4482FF9015EEF04C0F3
:100700002F5F2630F9F61DC18091E800282F30E0D8
:10071000C90185709070892BB9F322FD15C1242F72
:10072000413208F020E2922F04C085918093F100BD
:1007300091509923D1F7421B5093E800442321F7AD
:10074000203211F301C1953061F48EEF8093E800FF
:100750008091E80080FFFCCF842F80688093E300C5
:10076000F3C0993009F5222309F0EBC0409315013D
:1007700010921701109213018EEF8093E800EEE2C1
:10078000F1E091E09093E90085918093EB0088235C
:1007900031F085918093EC0085918093ED009F5F0F
:1007A000953081F78EE1C8C0983061F4203809F0A7
:1007B000C8C08091E80080FFFCCF80911501809334
:1007C000F10097C09132A9F4213A09F0BAC08091A2
:1007D000E80080FFFCCF20E030E0F901EE5FFE4F43
:1007E00080818093F1002F5F3F4F27303105A9F7BB
:1007F00080C0903209F04CC0213209F0A2C0809133
:10080000E80082FFFCCF20E030E0F901EE5FFE4F10
:100810008091F10080832F5F3F4F27303105A9F78A
:100820008BEF8093E8008EEF8093E80080910201C7
:1008300090910301A0910401B091050186389105C2
:10084000A105B10519F48FE0809314018091020194
:1008500090910301A0910401B091050186399105A1
:10086000A105B10509F070C084E08093E9002FEF85
:1008700006C02093E8008091E80082FDFCCF8091C3
:10088000EE0090E083709070892B99F70E946502CA
:10089000923251F4213209F054C0409317018091F3
:1008A000E80080FFFCCF25C0933241F4213209F0EB
:1008B00048C08091E80080FFFCCF1BC09923E9F479
:1008C0008091E80080FFFCCF223811F080E00DC05D
:1008D0006093E9008091EB0090E025E09695879584
:1008E0002A95E1F781701092E9008093F10010924F
:1008F000F1008EEF8093E80027C0913011F0933023
:1009000001F52230F1F4452BE1F4262F2F77822FC9
:1009100081508630B0F48EEF8093E8002093E90098
:10092000933079F089E18093EB0081E090E002C0A0
:10093000880F991F2A95E2F78093EA001092EA0047
:1009400003C081E28093EB00FF91EF91BF91AF91E3
:100950009F918F917F916F915F914F913F912F91D7
:100960000F900FBE0F901F9018951F920F920FB609
:100970000F9211242F933F934F935F936F937F9325
:100980008F939F93AF93BF93EF93FF938091E10079
:100990001092E100982F83FF11C01092E90081E0CE
:1009A0008093EB001092EC0082E28093ED0088E0EF
:1009B0008093F000109215011092170192FF1EC053
:1009C000809115018823D1F080911301882359F07B
:1009D000815080931301882331F484E08093E900EF
:1009E0008AE38093E80080911401882339F08150D4
:1009F00080931401882311F40E94510290FF0CC0CF
:100A000080E18093E2001092150181E0809316014D
:100A100080EA8093D80019BC80911601882379F070
:100A200094FF0DC08AE189BD09B400FEFDCF80E9C5
:100A30008093D8008DE08093E20010921601FF9120
:100A4000EF91BF91AF919F918F917F916F915F9146
:100A50004F913F912F910F900FBE0F901F901895BF
:040A6000F894FFCF38
:0A0A64000D0000E100000000080092
:00000001FF
