:100000000C94B2000C94DA000C94DA000C94AE015B
:100010000C94D8010C9402020C94DA000C94DA00CF
:100020000C94DA000C94DA000C94DA000C94DA00E8
:100030000C94DA000C94DA000C94DA000C94DA00D8
:100040000C94F3070C94DA000C94E1050C942F0641
:100050000C94DA000C94DA000C94DA000C94DA00B8
:100060000C94DA000C94DA0000C2010001001100C7
:1000700011000C0000E100000A002500250021000D
:10008000009600001900390039003600127A00008D
:100090001F004600460044008070000022004D0012
:1000A0004D004A00004B00003600750075007200DC
:1000B000403800004A009C009C0099008025000008
:1000C0007200EC00EC00E900C0120000E900DA0167
:1000D000DA01D70160090000D701B603B603B30304
:1000E000B0040000B3036E076E076B0758020000F0
:1000F0006E07DC0EDC0ED80E2C010000DC0EC11DDC
:10010000C11DBE1D00000000240027002A000000C1
:100110000000250028002B0000000000230026001E
:10012000290004040404040404040202020202027A
:1001300003030303030301020408102040800102AB
:10014000040810200102040810200000000700022B
:100150000100000304060000000000000000FB0096
:100160009D07F40011241FBECFEFD8E0DEBFCDBF46
:1001700011E0A0E0B1E0E4EAF1E102C005900D92E7
:10018000AE33B107D9F712E0AEE3B1E001C01D9282
:10019000A135B107E1F711E0C2E6D1E004C0229732
:1001A000FE010E94C108CE35D107C9F70E94D105D2
:1001B0000C94C5080C9400008130910559F46F5FD0
:1001C0007F4F89F48EE391E06AE04BE020E00E94EB
:1001D00097040895892B39F46F5F7F4F21F48EE3E4
:1001E00091E00E941E03089580E090E06FEF7FEFA2
:1001F0000E94DC00089581E090E06FEF7FEF0E94A5
:10020000DC00089586E292E040E051EE60E070E0AC
:100210000E946A0686E292E00E949B078823D1F33F
:1002200086E292E060E071E00E94BE058EE391E01C
:1002300040EC52E160E070E00E942C028EE391E01D
:1002400060E171E00E94BE0508958EE391E00E9496
:100250004803892B49F08EE391E00E942703682F21
:1002600086E292E00E945B0786E292E00E94F1063D
:10027000892B49F086E292E00E942207682F8EE3E4
:1002800091E00E94620308950F931F93CF93DF9331
:10029000FC01738D76957170A685B785958577235A
:1002A00029F08C91892309F454C004C08C918923CE
:1002B00009F04FC08389948920E001972FEF8F3F89
:1002C0009207D9F7C589D689A685B785158560E0D7
:1002D00031E040E050E000E0CE01202F01972FEF09
:1002E0008F3F9207D9F78C91812311F0632B03C0C4
:1002F000832F80956823330F4F5F5F4F4830510540
:1003000059F78789908D20E001972FEF8F3F920753
:10031000D9F77111609580919C0120919D0190E029
:1003200001968F73907030E08217930779F0E09117
:100330009C01F0E0E45AFE4F608380919C0190E0C4
:1003400001968F73907080939C0103C0838D8160B0
:10035000838FDF91CF911F910F9108951F920F927C
:100360000FB60F9211242F933F934F935F936F9388
:100370007F938F939F93AF93BF93EF93FF9380915E
:100380005A0190915B01009711F00E944401FF9186
:10039000EF91BF91AF919F918F917F916F915F91FD
:1003A0004F913F912F910F900FBE0F901F90189576
:1003B0001F920F920FB60F9211242F933F934F93DA
:1003C0005F936F937F938F939F93AF93BF93EF93BD
:1003D000FF9380915A0190915B01009711F00E9468
:1003E0004401FF91EF91BF91AF919F918F917F91C8
:1003F0006F915F914F913F912F910F900FBE0F9092
:100400001F9018951F920F920FB60F9211242F93E1
:100410003F934F935F936F937F938F939F93AF938C
:10042000BF93EF93FF9380915A0190915B010097E6
:1004300011F00E944401FF91EF91BF91AF919F9104
:100440008F917F916F915F914F913F912F910F907D
:100450000FBE0F901F901895CF92DF92EF92FF92F0
:100460000F931F93CF93DF93EC017A018B011A8EC8
:10047000198E188E1F8A1E8A1D8A1C8A1B8A20E0EC
:1004800030E06901CC0CDD1CC20ED31EB601660F34
:10049000771F660F771FAB0148595F4FFA018591AF
:1004A0009591A591B4918E159F05A007B107E9F428
:1004B000FB01E459FF4F859194919C8B8B8BFB0141
:1004C000E259FF4F859194919E8B8D8BFB01E059F2
:1004D000FF4F85919491988F8F8BFB01EE58FF4FC2
:1004E000859194919A8F898F06C02F5F3F4F2D3051
:1004F000310509F0C6CF8F89988D892B09F449C041
:100500004C85463108F03DC090916800483010F4A9
:1005100084E005C04E3010F082E001C081E0892BFC
:1005200080936800483028F4EDE6F0E0ADE6B0E0F6
:100530000BC04E3028F0ECE6F0E0ACE6B0E004C0D2
:10054000EBE6F0E0ABE6B0E05081483040F481E00B
:1005500090E002C0880F991F4A95E2F710C0242F3F
:1005600030E04E3018F42850304002C02E50304059
:1005700081E090E002C0880F991F2A95E2F7852B51
:100580008C93898D9A8D20E001972FEF8F3F9207F2
:10059000D9F780915A0190915B018C179D0781F0EA
:1005A0008B8D8E7F8B8F9FB7F89410929C018091DA
:1005B0009C0180939D01D0935B01C0935A019FBF22
:1005C000DF91CF911F910F91FF90EF90DF90CF902F
:1005D0000895FC014485463180F5483028F4EDE665
:1005E000F0E0ADE6B0E00BC04E3028F4EBE6F0E012
:1005F000ABE6B0E004C0ECE6F0E0ACE6B0E0508181
:10060000483040F481E090E002C0880F991F4A957D
:10061000E2F710C0242F30E04E3018F4285030405C
:1006200002C02E50304081E090E002C0880F991F38
:100630002A95E2F7809585238C930895FC0182E248
:1006400091E091838083CF010E94E9020895209177
:100650005A0130915B012817390731F490919D01BF
:1006600080919C01981719F42FEF3FEF0FC0E09194
:100670009D01F0E0E45AFE4F208180919D0190E0C1
:1006800001968F73907080939D0130E0C9010895A9
:1006900020915A0130915B012817390719F020E0A9
:1006A00030E00EC080919C0120919D0190E0805C23
:1006B0009F4F821B910960E470E00E9476089C01C4
:1006C000C90108950F931F93DC0159968D919C9158
:1006D0005A97892B49F481E090E013969C938E936E
:1006E000129720E030E097C00FB7F8945B968C919A
:1006F0005B975196ED91FC91529750962C915097A3
:1007000081FF8DC08081822B808359968D919C9131
:100710005A97059620E001972FEF8F3F9207D9F760
:100720005B968C915B9781FF35C031E040E050E0F3
:1007300070E010E0832F90E0862397235196ED918F
:10074000FC91529750962C915097892B29F08081DB
:1007500020952823208303C08081822B8083599693
:100760008D919C915A97212F01972FEF8F3F9207E0
:10077000D9F7330F4F5F5F4F48305105D9F6519687
:10078000ED91FC915297908150968C915097809565
:10079000892333C031E040E050E070E010E0832F67
:1007A00090E0862397235196ED91FC9152975096B5
:1007B0002C915097892B21F08081822B808304C05B
:1007C000808120952823208359968D919C915A975A
:1007D000212F01972FEF8F3F9207D9F7330F4F5FEC
:1007E0005F4F48305105D9F65196ED91FC915297E3
:1007F000808150969C915097892B80830FBF59968A
:100800008D919C915A9720E001972FEF8F3F92078F
:10081000D9F721E030E0C9011F910F91089580813F
:1008200020952823208371CF20915A0130915B01BC
:100830002817390749F49FB7F89410929C018091CA
:100840009C0180939D019FBF089520915A01309192
:100850005B012817390731F490919D0180919C012B
:10086000981719F42FEF3FEF0AC0E0919D01F0E0D7
:10087000E45AFE4F8081282F332727FD3095C90188
:1008800008951F93CF93DF93EC01162F862F60E01E
:100890000E94C5048B8D81FD04C0812F61E00E9400
:1008A00004051C87212F30E0C9018A5C9E4FFC01A2
:1008B00084918D872E5D3E4FF9016491E62FF0E023
:1008C000EE0FFF1FE85EFE4F859194919F878E8704
:1008D000DF91CF911F910895FF920F931F938C0189
:1008E000F62E862F61E00E94C5048F2D61E00E94E4
:1008F00004058F2D90E0FC01EA5CFE4FE491D801E5
:100900005096EC9350978E5D9E4FFC016491E62FBC
:10091000F0E0EE0FFF1FE25FFE4F8591949152963B
:100920009C938E9351971F910F91FF900895FF9282
:100930000F931F938C01F62EFC011382128288EE16
:1009400093E0A0E0B0E084839583A683B78382E23E
:1009500091E091838083148A138A168A158A108EF7
:10096000178A128E118E838D2170220F8C7F822B1D
:10097000838FC801642F0E946C04C8016F2D0E94F0
:1009800041041F910F91FF900895CF93DF93482F5B
:1009900050E0CA018A5C9E4FFC0134914E5D5E4F6F
:1009A000FA018491882369F190E0880F991FFC0176
:1009B000EC5FFE4FA591B491FC01E25FFE4FC59143
:1009C000D491662351F42FB7F8948C91932F90957E
:1009D00089238C93888189230BC0623061F42FB7FF
:1009E000F8948C91932F909589238C938881832BF5
:1009F00088832FBF06C09FB7F8948C91832B8C936C
:100A00009FBFDF91CF910895482F50E0CA01865BC8
:100A10009E4FFC012491CA018A5C9E4FFC01949177
:100A20004E5D5E4FFA013491332309F440C0222316
:100A300051F1233071F0243028F42130A1F022301C
:100A400011F514C02630B1F02730C1F02430D9F4AC
:100A500004C0809180008F7703C0809180008F7DDB
:100A60008093800010C084B58F7702C084B58F7DDD
:100A700084BD09C08091B0008F7703C08091B00021
:100A80008F7D8093B000E32FF0E0EE0FFF1FE25F59
:100A9000FE4FA591B4912FB7F894662321F48C9161
:100AA0009095892302C08C91892B8C932FBF089538
:100AB000CF92DF92EF92FF920F931F93CF93DF932A
:100AC0007C016B018A01C0E0D0E00FC0D6016D91BE
:100AD0006D01D701ED91FC910190F081E02DC701EE
:100AE0000995C80FD91F015010400115110571F764
:100AF000CE01DF91CF911F910F91FF90EF90DF908A
:100B0000CF900895EF92FF920F931F938C01DC0119
:100B1000ED91FC910190F081E02D6DE009957C0153
:100B2000D801ED91FC910190F081E02DC8016AE0BF
:100B300009959C012E0D3F1DC9011F910F91FF903A
:100B4000EF900895CF93DF93EC016115710519F4CF
:100B500020E030E00FC0DB010D900020E9F7119795
:100B6000A61BB70BE881F9810280F381E02DAD016E
:100B700009959C01C901DF91CF910895EF92FF92F1
:100B80000F931F937C010E94A2058C01C7010E9454
:100B90008205080F191FC8011F910F91FF90EF9058
:100BA0000895CF93DF930E943B080E940201CCE19D
:100BB000D6E00E9425012097E1F30E941C06F9CFA0
:100BC00008951F920F920FB60F9211242F933F9307
:100BD0004F938F939F93EF93FF938091C00082FD7B
:100BE0001DC04091C6002091DE013091DF012F5FD2
:100BF0003F4F2F7330708091E0019091E1012817F1
:100C0000390771F0E091DE01F091DF01E256FE4F0D
:100C100040833093DF012093DE0102C08091C60043
:100C2000FF91EF919F918F914F913F912F910F9055
:100C30000FBE0F901F901895E0913202F091330291
:100C4000E05CFF4F8191919120813181821B930B58
:100C50008F739070892B11F00E94E00508951F9208
:100C60000F920FB60F9211242F933F938F939F9360
:100C7000EF93FF932091220230912302809124026E
:100C8000909125022817390731F48091C1008F7D9A
:100C90008093C10014C0E0912402F0912502EE512E
:100CA000FE4F2081809124029091250201968F733E
:100CB000907090932502809324022093C600FF91A8
:100CC000EF919F918F913F912F910F900FBE0F90B9
:100CD0001F901895AF92BF92DF92EF92FF920F9301
:100CE0001F93CF93DF93EC017A018B01DD24403019
:100CF00081EE580780E0680780E0780711F0DD2476
:100D0000D39491E0A92EB12CEC89FD89DD2069F006
:100D1000C50108A002C0880F991F0A94E2F78083DA
:100D200060E079E08DE390E005C0108260E874E84F
:100D30008EE190E0A80197010E948908215030407F
:100D400040405040569547953795279580E1203093
:100D5000380720F0DD2011F0DD24D6CFE889F989AD
:100D60003083EA89FB89208319A2EE89FF894081BB
:100D700021E030E0C9010C8C02C0880F991F0A9451
:100D8000E2F7482B4083EE89FF894081C9010D8C31
:100D900002C0880F991F0A94E2F7482B4083EE891E
:100DA000FF894081C9010E8C02C0880F991F0A94E7
:100DB000E2F7482B4083EE89FF8980810F8C02C0C7
:100DC000220F331F0A94E2F7209528232083DF9116
:100DD000CF911F910F91FF90EF90DF90BF90AF9058
:100DE0000895DC011C96ED91FC911D97E05CFF4F8E
:100DF0002191319180819181281B390B2F733070A3
:100E0000C9010895DC011C96ED91FC911D97E05CF1
:100E1000FF4F20813181E054F040DF01AE5BBF4FD6
:100E20008D919C9111972817390719F42FEF3FEFF7
:100E300007C08D919C91E80FF91F8081282F30E029
:100E4000C9010895DC011C96ED91FC911D97E05CB1
:100E5000FF4F20813181E054F040DF01AE5BBF4F96
:100E60008D919C9111972817390719F42FEF3FEFB7
:100E700010C08D919C911197E80FF91F20818D91E1
:100E80009C91119701968F73907011969C938E93FD
:100E900030E0C9010895DC0191968C9191978823E7
:100EA00039F05496ED91FC915597808186FFF9CFEA
:100EB00091961C920895CF93DF93EC01EE85FF8508
:100EC000E05CFF4F20813181E054F0402F5F3F4FC5
:100ED0002F733070DF01AE5BBF4F8D919C911197E6
:100EE00028173907D1F3E05CFF4F80819181E054EE
:100EF000F040E80FF91F6083EE85FF85E05CFF4F4F
:100F000031832083EE89FF89208181E090E00F8C7E
:100F100002C0880F991F0A94E2F7282B208381E0F2
:100F200089A3EC89FD8980818064808381E090E0E1
:100F3000DF91CF91089581E00895109229021092D7
:100F4000280288EE93E0A0E0B0E080932A0290931C
:100F50002B02A0932C02B0932D0282E391E0909398
:100F60002702809326028EE991E0909333028093CA
:100F7000320282EE91E0909335028093340285EC48
:100F800090E0909337028093360284EC90E0909347
:100F900039028093380280EC90E090933B0280937A
:100FA0003A0281EC90E090933D0280933C0282EC07
:100FB00090E090933F0280933E0286EC90E0909305
:100FC00041028093400284E08093420283E0809358
:100FD000430287E08093440285E08093450281E0EC
:100FE0008093460208951F920F920FB60F9211241C
:100FF0002F933F938F939F93AF93BF9380914C0216
:1010000090914D02A0914E02B0914F02309150024A
:101010000196A11DB11D232F2D5F2D3720F02D57D7
:101020000196A11DB11D2093500280934C02909314
:101030004D02A0934E02B0934F02809148029091CE
:101040004902A0914A02B0914B020196A11DB11D27
:101050008093480290934902A0934A02B0934B02B6
:10106000BF91AF919F918F913F912F910F900FBEA4
:101070000F901F901895789484B5826084BD84B5D4
:10108000816084BD85B5826085BD85B5816085BD83
:10109000EEE6F0E0808181608083E1E8F0E010829C
:1010A000808182608083808181608083E0E8F0E0DD
:1010B000808181608083E1EBF0E0808184608083C7
:1010C000E0EBF0E0808181608083EAE7F0E08081FE
:1010D000846080838081826080838081816080835E
:1010E0008081806880831092C100089597FB092E4B
:1010F00007260AD077FD04D02ED006D000201AF49F
:10110000709561957F4F0895F6F7909581959F4F63
:101110000895A1E21A2EAA1BBB1BFD010DC0AA1F38
:10112000BB1FEE1FFF1FA217B307E407F50720F050
:10113000A21BB30BE40BF50B661F771F881F991FCB
:101140001A9469F760957095809590959B01AC0114
:10115000BD01CF010895AA1BBB1B51E107C0AA1F07
:10116000BB1FA617B70710F0A61BB70B881F991F48
:101170005A95A9F780959095BC01CD010895EE0F81
:10118000FF1F0590F491E02D099411E0C2E6D1E033
:1011900004C0FE010E94C1082296C436D107C9F7D7
:0411A000F894FFCFF1
:1011A400476F6F646E69676874206D6F6F6E21009E
:1011B40048656C6C6F2C20776F726C643F00000084
:1011C40000006203580548032703250414040000A3
:0E11D40000005B075805F106220702074B07D3
:00000001FF
